:020000009D2839
:08000800FF00030E8312031335
:10001000B4000A0EB500040EB6008A110A12C528F3
:10002000C308031D14280800F93000000000000078
:10003000000000000000FF3E031D15280000000026
:1000400000000000000000000000C30B142808009E
:10005000831603138601FC3083128600FF30C30031
:100060001020F530C300102083168601FF30831264
:100070008600C3001020F530C300102008000730B0
:10008000831603139F00C03081008601FF30831266
:100090008600C201FF30831605048500831205081F
:1000A000C2004208003A03196528013A03196B2877
:1000B000033A03198128063A03199728013A0319CC
:1000C0009928033A03199B284A2883168601FF3092
:1000D000831286004A2883168601FE30831286002A
:1000E000FF30C3001020F530C300102083168601B6
:1000F000FF3083128600C3001020F530C3001020AB
:100100004A2883168601FD3083128600FF30C30023
:100110001020F530C300102083168601FF308312B3
:100120008600C3001020F530C30010204A28282084
:100130004A2828204A2828204A28D5308312031329
:10014000A000C430A100BB30A200DC30A300A40199
:10015000A501A601A701A801A901AA01AB01AC0153
:10016000AD01AE01AF01BC01BD01B701B801BE01D7
:10017000BF01C001C101B001B101B201B301BA01B7
:10018000BB01B9018A110A123F2883120313360EEC
:100190008400350E8A00340E8300FF0E7F0E0900A6
:02400E007A3FF7
:00000001FF
